{
    "contractName": "BaseBoringBatchable",
    "abi": [
        {
            "inputs": [
                {
                    "internalType": "bytes[]",
                    "name": "calls",
                    "type": "bytes[]"
                },
                {
                    "internalType": "bool",
                    "name": "revertOnFail",
                    "type": "bool"
                }
            ],
            "name": "batch",
            "outputs": [],
            "stateMutability": "payable",
            "type": "function"
        }
    ],
    "bytecode": "608060405234801561001057600080fd5b506103f9806100206000396000f3fe60806040526004361061001e5760003560e01c8063d2423b5114610023575b600080fd5b610036610031366004610179565b610038565b005b60005b8281101561010e576000803086868581811061005957610059610204565b905060200281019061006b919061021a565b604051610079929190610268565b600060405180830381855af49150503d80600081146100b4576040519150601f19603f3d011682016040523d82523d6000602084013e6100b9565b606091505b5091509150811580156100c95750835b156100f9576100d781610114565b60405162461bcd60e51b81526004016100f091906102a4565b60405180910390fd5b50508080610106906102d7565b91505061003b565b50505050565b606060448251101561015957505060408051808201909152601d81527f5472616e73616374696f6e2072657665727465642073696c656e746c79000000602082015290565b600482019150818060200190518101906101739190610316565b92915050565b60008060006040848603121561018e57600080fd5b833567ffffffffffffffff808211156101a657600080fd5b818601915086601f8301126101ba57600080fd5b8135818111156101c957600080fd5b8760208260051b85010111156101de57600080fd5b6020928301955093505084013580151581146101f957600080fd5b809150509250925092565b634e487b7160e01b600052603260045260246000fd5b6000808335601e1984360301811261023157600080fd5b83018035915067ffffffffffffffff82111561024c57600080fd5b60200191503681900382131561026157600080fd5b9250929050565b8183823760009101908152919050565b60005b8381101561029357818101518382015260200161027b565b8381111561010e5750506000910152565b60208152600082518060208401526102c3816040850160208701610278565b601f01601f19169190910160400192915050565b60006000198214156102f957634e487b7160e01b600052601160045260246000fd5b5060010190565b634e487b7160e01b600052604160045260246000fd5b60006020828403121561032857600080fd5b815167ffffffffffffffff8082111561034057600080fd5b818401915084601f83011261035457600080fd5b81518181111561036657610366610300565b604051601f8201601f19908116603f0116810190838211818310171561038e5761038e610300565b816040528281528760208487010111156103a757600080fd5b6103b8836020830160208801610278565b97965050505050505056fea2646970667358221220373c6aa0d0cece2384b81b8ba4fcef82821e92a965823032c16f0f4a9f4f16ff64736f6c634300080b0033",
    "sourcePath": "/home/spark/sushi/sushi-maker-auction/contracts/utils/BoringBatchable.sol",
    "compiler": {
        "name": "solc",
        "version": "0.8.11+commit.d7f03943"
    },
    "functionHashes": {
        "batch(bytes[],bool)": "d2423b51"
    },
    "gasEstimates": {
        "creation": {
            "codeDepositCost": "203400",
            "executionCost": "245",
            "totalCost": "203645"
        },
        "external": {
            "batch(bytes[],bool)": "infinite"
        },
        "internal": {
            "_getRevertMsg(bytes memory)": "infinite"
        }
    }
}